:0400000014EF3DF0CC
:1079DE00C230010B00D01200C450026EC350016EB3
:0479EE0000D01200B3
:1079F300960000020002000200029600C0030EE897
:107A03002EFED700F0012EFAD700D012000D0E0281
:107A13006EFB0EE82EFED7022EFCD700D0012EF609
:107A2300D700D0120000EE25F0080EEE6AE806FD3E
:107A3300E1F30EF66E790EF76E000EF86E00EE1897
:107A4300F010EE0DF00900F5CFEEFFE550E150FA2E
:107A5300E10001FCEF3DF08B848C848C868C828C5E
:107A63008094949594959695929590958A95880689
:107A73006ED50E016E0650076E040E026E07500897
:107A83006EF40E036E08509AEC3DF0C00E8B123F5D
:107A93000E9416D09EF29CF29E00D01200000E05AA
:107AA3006E000E046E0550800A800F090ED8B404D0
:107AB3005CD8A001D001D002D014D013D0036EE65D
:107AC3000E016E035008EC3DF0044A052A05508070
:107AD3000A800F090ED8B4045CD8A001D001D0EEFF
:107AE300D700D0120003C005F0D8900536D8900512
:107AF300363C0E0516C250C30B0510C26EC282057A
:107B03006E030E016E055000EC3DF001D000D0EF86
:107B1300EC3CF0056E0504D8B401D001D0F8D700D1
:107B2300D0F3EC3CF001C003F002C004F000D0122B
:107B330000000EC26E000EC06ED89002303C0BC225
:107B43006E02C004F0043AF00E0416300E0416035D
:107B5300500F0B0410C16E01C004F0D8900436D846
:107B6300900436380E041601C005F0053A0F0E05D1
:107B730016070E05160150800B05100410C06E0287
:107B8300AE01D001D003D09E9C9D8CF28CC280129A
:107B9300001FD08C868C808C948C922BD08C968CEE
:107BA300908C848C8226D08C868C828C948C9021B1
:107BB300D08C848C808C968C921CD08C848C868CFC
:107BC300828C8017D08C848C868C828C8012D0110E
:107BD300D00150620AD8B4E2D7040AD8B4DAD70A7B
:107BE3000AD8B4E1D71E0AD8B4E3D7010AD8B4E55A
:107BF300D7E9D712002DEC3DF083AA01D001D003C1
:107C0300D08B9C8B8E04D08B8C8B9E01D000D08329
:107C1300A801D001D0FCD700D050EC3DF0F9EC3EE8
:107C2300F024B001D001D00DD024B201D001D0098D
:107C3300D024B401D001D005D024A601D001D0C8EE
:107C4300D000D0CF0E2416C4D0C3D024A001D001BD
:107C5300D012D024A201D001D00ED0176E620E0133
:107C63006E1750CAEC3DF0176E7D0E016E1750086B
:107C7300EC3DF0248E5FD024A001D001D00ED017AC
:107C83006E620E016E1750CAEC3DF0176E7D0E0149
:107C93006E175008EC3DF0248E4DD024A201D00184
:107CA300D00ED0176E620E016E1750CAEC3DF0175E
:107CB3006E7D0E016E175008EC3DF0249E3BD024E0
:107CC300A401D001D00BD024A601D001D007D01736
:107CD3006E660E016E1750CAEC3DF02CD024B40131
:107CE300D001D005D024A601D001D00ED000D017EA
:107CF3006E720E016E1750CAEC3DF0176E4B0E01FB
:107D03006E175008EC3DF016D024A601D001D01216
:107D1300D0176E6C0E016E1750CAEC3DF0176E4B08
:107D23000E016E175008EC3DF005D004D003D002CD
:107D3300D001D000D02450CF0B1009246E6FD71977
:107D430050800A176E2750185C2850800A1758D89D
:107D5300B001D001D003D0300E241200D024AC01E6
:107D6300D001D008D083AA01D001D002D0248E0143
:107D7300D0249E249C24AE01D001D007D0176E726C
:107D83000E016E1750CAEC3DF049D7176E6C0E0109
:107D93006E1750CAEC3DF042D741D7176E660E01FD
:107DA3006E1750CAEC3DF02850800A176E225027F8
:107DB3005C2350800A1758D8B001D001D02FD724A4
:107DC30050CF0B1009246E2AD729D7CF0E2416269D
:107DD300D72438030B000AD8B438D7010AD8B4AF74
:107DE300D7020AD8B4DAD7F1D719D700EF00F000D9
:107DF3000E156E000E146E14C008F015C009F008BD
:107E0300C012F009C013F012C010F013C011F0102B
:107E1300C00EF011C00FF00EC00CF00FC00DF00C2F
:107E2300C00AF00DC00BF0249024922494249606EB
:107E33006E000E166E0650070E166401D001D002B6
:107E4300D044D043D0066E000E036E065074EC3D52
:107E5300F00350122604501322066E0B0E036E0617
:107E63005074EC3DF00350142604501522066E01A5
:107E73000E036E065074EC3DF003500A2604500BBB
:107E830022066E090E036E065074EC3DF003500C8F
:107E93002604500D22066E020E036E065074EC3D4E
:107EA300F003500E2604500F22066E080E036E06D2
:107EB3005074EC3DF00350102604501122162A078B
:107EC3000E166401D001D0BED700D0D89013321261
:107ED30032D89013321232D89013321232D890150E
:107EE300321432D89015321432D89015321432D855
:107EF300900B320A32D8900B320A32D8900B320AE6
:107F030032D8900D320C32D8900D320C32D8900DFD
:107F1300320C32D8900F320E32D8900F320E32D844
:107F2300900F320E32D89011321032D89011321095
:107F330032D890113210321E500A5C1F500B58D8A1
:107F4300A001D002D0010E01D0000E066E2450060F
:107F530018FE0B0618246E20500C5C21500D58D8C7
:107F6300A001D002D0010E01D0000E066E064624F9
:107F7300500618FD0B0618246E1A500E5C1B500F8A
:107F830058D8A001D002D0010E01D0000E066E0613
:107F930046064624500618FB0B0618246E1C501088
:107FA3005C1D501158D8A001D002D0010E01D000A1
:107FB3000E066E06460646064624500618F70B06BE
:107FC30018246E14C006F015C007F0061E071E061F
:107FD3004A072A12500624296E135007202A6E12CC
:107FE300C006F013C007F01450062615500722D818
:0E7FF300900730286E0630276E00D01200FF77
:020000040020DA
:08000000FFFFFFFFFFFFFFFF00
:020000040030CA
:0E000000000C011EFF8081FF0FC00FE00F40BB
:00000001FF
