:0400000080310B2818
:10000800803120007F08F0007008FF000900873168
:10001800142F8431282480317C181328142874283C
:100028002000DF0104305F02031C1B281C281E2847
:100038005A285A2800308F1E0130CD00CD0ECD0D24
:10004800CD0D22000E0820004D06BF394D062200B6
:100058008E0020008F1A3128342822008E17362867
:1000680022008E136430F1000030F2008631F7264A
:10007800803122008E178E1B4228452822000E1739
:10008800472822000E136430F1000030F200863158
:10009800F726803101302000CD004D08DF070430FD
:1000A8005F02031C582859281E285A2800308F1E22
:1000B8000130CD00CD0ECD0DCD0D22000E08200053
:1000C8004D06BF394D0622008E0020008F1A6D287C
:1000D800702822008E17722822008E137428742824
:1000E80020000F1E7828792874287A280530F10016
:1000F8000030F2008531D125803182288231D52225
:1001080080317C1888288928822820005A188D2850
:100118008E289B28DA18912892289B285A19952806
:1001280096289B28DA1D99289A2861299B28CF3080
:10013800DA05612961295A1CA228A328B528DA1CE6
:10014800A628A728B52862308431DC2480312C30D9
:10015800F1000130F2008631F72680312000DA17ED
:1001680010295A1CB828B928C72862308431DC24E1
:1001780080312C30F1000130F2008631F7268031D1
:100188002000DA171029DA1CCA28CB28D9286230AF
:100198008431DC2480312C30F1000130F2008631CA
:1001A800F72680312000DA1310295A1DDC28DD28B3
:1001B800E628DA1DE028E128E62866308431DC24C8
:1001C800803110295A19E928EA28EF28DA1DED2884
:1001D800EE28FB28EF2872308431DC248031B930D6
:1001E800F1000030F2008631F72680311029DA1D3F
:1001F800FE28FF2810296C308431DC248031B93086
:10020800F1000030F2008631F726803110291029DC
:10021800102910291029102920005A08CF39103820
:10022800DA0082284F08803ACD005C08803A4D02F7
:10023800031D20295B084E02031823292429282995
:1002480030302000DA04282920005A1F2C292D29B3
:1002580035298F1E302931293329DA173429DA1341
:100268005A13DA1F382939293E2972308431DC249F
:10027800803182286C308431DC24803182288228C5
:1002880066308431DC24803120005C08803ACD005F
:100298005908803A4D02031D532958085B02031878
:1002A80056295729822820005A08CF391038DA00F1
:1002B80082288228CF30DA0582285A0E0339003A7C
:1002C80003199F28013A03191629023A03194429E8
:1002D8005E298228822880310B282000BA00243029
:1002E800B0003008B300C22A3D08253A03197D2919
:1002F8007E2983293D08873157278131C22A20006A
:10030800BB01BC01B5013A0885310A00813187314A
:1003180029278131031C91299229D0292000BB016A
:10032800BC0196290A30F1000030F20020003C0898
:10033800F401F4073B08F301F3078631D326813132
:1003480072082000BC01BC077108BB01BB073A0852
:1003580085310A008131D03EB000FF3003180030EB
:10036800B1003008BB073108BC3D0130B00030088F
:10037800BA073A0885310A00813187312927813146
:100388000318C729C8299629D029D029D029D42AC1
:10039800E329E329C22AE32901302000BA07FF3004
:1003A8003A0785310A008131BD00003A0319D42A81
:1003B800643A0319E3290D3A0319E329C22A2000F4
:1003C800330886008701403FB600413FB70002303E
:1003D800B0003008B307B71FF229F329FD2903300D
:1003E800B0003008B504B609B709B60A0319B70A48
:1003F800FD29BD01BD0A3D08053A031D042A052A49
:10040800072A2B2A2B2A62308400853085003D0874
:10041800090784070318850A003FB000013FB100AF
:1004280031083702031D1A2A3008360203181D2A1C
:100438001E2A202A2B2A2B2A0130B0003008BD079B
:100448003D08053A031D292A2A2A072A2B2A3C088F
:100458003B040319302A312A3B2A3508033903198A
:10046800362A372A3B2AFF30BB07FF30BC3D3D0800
:10047800B000B101B01BB1033108803AB2003C08AA
:10048800803A3202031D4A2A3B08300203184D2ADB
:100498004E2A592A20003D08B000B101B01BB10313
:1004A8003008BB023108BC3B5D2A2000BB01BC01FF
:1004B8005D2A3C083B040319622A632A752A642AC8
:1004C8002030873157278131FF302000BB07FF30AC
:1004D800BC3D3C083B04031D722A732A642A752A12
:1004E800752A3508033903197A2A7B2A802A2D3080
:1004F800873157278131802A20003D08B000300815
:10050800B400B52A0A30A0000030A100623084008F
:10051800853085003408090784070318850A003FD9
:10052800F100013FF2003708F401F4073608F3013F
:10053800F30786312626813172082000A301A3071C
:100548007108A201A20786316B268131200020089C
:10055800303EB0003008BD003D0887315727813153
:10056800B52AFF302000B0003008B4073408FF3A3D
:10057800031DBF2AC02A862AC22AC22A01302000A7
:10058800BA07FF303A0785310A008231B0003008D7
:10059800BD00BD08031DD12AD22A7829D42AD42A1D
:1005A80008002000C001C101C201C301C401C50186
:1005B800C601C701C801C901CA01CB015A10DA1026
:1005C8005A11DA11CC0106304C02031CEC2AED2A30
:1005D800EF2A042B042B00308631A92682317208B9
:1005E8002000C901C9077108C801C8070130BE0049
:1005F8003E08CC0706304C02031C032B042BEF2AC1
:10060800CC0106304C02031C0A2B0B2B0D2B222B82
:10061800222B01308631A926823172082000CB01B5
:10062800CB077108CA01CA070130BE003E08CC07D3
:1006380006304C02031C212B222B0D2BCC0106303B
:100648004C02031C282B292B2B2B402B402B023030
:100658008631A926823172082000C101C1077108BC
:10066800C001C0070130BE003E08CC0706304C026E
:10067800031C3F2B402B2B2BCC0106304C02031CB8
:10068800462B472B492B5E2B5E2B03308631A92640
:10069800823172082000C301C3077108C201C20772
:1006A8000130BE003E08CC0706304C02031C5D2B0F
:1006B8005E2B492BCC0106304C02031C642B652BA6
:1006C800672B7C2B7C2B04308631A926823172085B
:1006D8002000C501C5077108C401C4070130BE0068
:1006E8003E08CC0706304C02031C7B2B7C2B672B67
:1006F800CC0106304C02031C822B832B852B9B2BB1
:100708009B2B05308631A926823172082000C7014B
:10071800C7077108C601C6070130BE003E08CC07EE
:1007280006304C02031C992B9A2B852B9B2B5508C2
:100738004102031DA12B540840020030031C013064
:10074800BE005A083E06FE393E06DA005708430244
:10075800031DB02B560842020030031C0130BE00B6
:10076800BE0D5A083E06FD393E06DA00510845021C
:10077800031DC02B500844020030031C0130BE008A
:10078800BE0DBE0D5A083E06FB393E06DA00530878
:100798004702031DD12B520846020030031C0130CA
:1007A800BE00BE0DBE0DBE0D5A083E06F7393E0608
:1007B800DA004A09BE004B09BF00BE0A0319BF0A86
:1007C80048083E07DD0049083F3DDE004A08480763
:1007D800BE004B08493DBF000130BF36BE0C890B37
:1007E800F12B3E08DB003F08DC007C1CFC2BFD2BBA
:1007F800272C4108A501A5074008A401A407430820
:10080800A701A7074208A601A6074508A901A90745
:100818004408A801A8074708AB01AB074608AA0186
:10082800AA074908AD01AD074808AC01AC074B0859
:10083800AF01AF074A08AE01AE076C3081317121B4
:100848008231272C272C0800FC30210099057830AC
:100858009904991322000E150E19332C362C2200F8
:100868000F15382C22000F110F193B2C3E2C22009B
:100878008F15402C22008F118F19432C462C2200F3
:100888008F14482C22008F108F184B2C4E2C2200CE
:100898000F14502C22000F1021000E110F118F1170
:1008A8008F100F108F1623008F1221000F162300B0
:1008B8000F1220000F1E612C622C632C7C14210067
:1008C80010141018682C6B2C21008C166D2C21002C
:1008D8008C128C1A702C732C21008C14752C21000E
:1008E8008C108C18782C7B2C21008C157D2C2100E9
:1008F8008C118C19802C832C21000C15852C21003F
:100908000C110C19882C8B2C21000C148D2C210017
:100918000C10230010141018922C952C23008C1600
:10092800972C23008C128C1A9A2C9D2C23008C1443
:100938009F2C23008C108C18A22CA52C23008C151E
:10094800A72C23008C118C19AA2CAD2C23000C1574
:10095800AF2C23000C110C19B22CB52C23000C144D
:10096800B72C23000C1087314A2784317C1CBD2CFE
:10097800BE2CCD2C21008E170E17673023009B004C
:1009880090309D0024309E00A9308131712184313E
:10099800D82CC030FB007B0822008E043F30FB00BF
:1009A8007B0821008E05D82C0B178B17DB2C080031
:1009B800F1007C18E02CE12C602D4E2D4E2D2200EC
:1009C8008F158F19E82CEB2C22000F14ED2C220028
:1009D8000F100F118F10602D22008F110F100F159F
:1009E8000F19F72CFA2C22008F14FC2C22008F10E0
:1009F800602D22008F158F19022D052D22008F14CE
:100A0800072D22008F100F110F10602D22000F15D7
:100A18000F190F2D122D22000F14142D22000F1064
:100A28008F118F10602D22000F150F191C2D1F2DEF
:100A380022008F15212D22008F118F19242D272D8B
:100A480022008F14292D22008F108F182C2D2F2D66
:100A580022000F14312D22000F10602D22000F15D7
:100A68000F19372D3A2D22008F153C2D22008F119A
:100A78008F193F2D422D22008F14442D22008F10F4
:100A88008F18472D4A2D22000F144C2D22000F10CD
:100A9800602D602D7108623A0319F02C043A03198D
:100AA800E32C0A3A0319FD2C1E3A03190A2D013AC0
:100AB8000319172D322D602D08000034013400343D
:100AC8000A34003464340034E834033410342734EE
:100AD80046344C343D3420342534343464342034A2
:100AE8002034463452343D3420342534343464348C
:100AF8002034203442344C343D34203425343434CA
:100B0800643420342034423452343D342034253483
:100B180034346434203420344F3450345F34463411
:100B28004C343D3420342534343464342034203477
:100B38004F3450345F34463452343D3420342534F5
:100B4800343464340D340A34003452346F3462342B
:100B58006F34743420346434653420345334753439
:100B68006D346F342034543468346F347234203424
:100B78002D3420344734613472347934203453347A
:100B880065347234763469346E3420343234303417
:100B9800313432340D340A3400347108F3007308E8
:100BA800F600F608031DD92DDA2DDC2D252E252E6D
:100BB80022008E178E1BE12DE42D22000E17E62D44
:100BC80022000E130630F5001330F400B130F300A4
:100BD800F30BEC2DF40BEC2DF50BEC2DF32D06306F
:100BE800F5001330F400B130F300F30BF92DF40BDA
:100BF800F92DF50BF92D002E0630F5001330F40011
:100C0800B130F300F30B062EF40B062EF50B062E6F
:100C18000D2E22008E130E130530F500DF30F40080
:100C2800BE30F300F30B162EF40B162EF50B162E12
:100C38001D2E0130F602F608031D232E242EDC2D6E
:100C4800252E0800F601F7017208710403192D2EEC
:100C58002E2E632EF801F80A3B2E0130F135F20DE5
:100C6800890B322E0130F5007508F8073B2EF21F6C
:100C78003E2E3F2E312E412E412E0130F635F70DF6
:100C8800890B422E72087402031D4C2E71087302E0
:100C9800031C4F2E502E562E7108F3027208F43B97
:100CA8007614562E0130F236F10C890B572E01308E
:100CB800F802031D602E612E412E632E632E7708E5
:100CC800F201F2077608F101F1076A2E0800200008
:100CD800210820040319712E722EA12EFA01FA0A96
:100CE8007F2E0130A035A10D890B762E0130F90039
:100CF8007908FA077F2EA11F822E832E752E852E46
:100D0800852E21082302031D8B2E20082202031C96
:100D18008E2E8F2E942E2008A2022108A33B942EFB
:100D28000130A136A00C890B952E0130FA02031D63
:100D38009E2E9F2E852EA12EA12E2308A101A1074C
:100D48002208A001A007A82E0800F400F501F6016A
:100D580074080739F300F30DF30D21001D0873061D
:100D6800833973069D000D30F300F30BB92E210073
:100D78009D14BE2E9D1CC12EC22EBE2EC32E1C0835
:100D8800F3007308F6001B08F3007308F5007608F3
:100D9800F201F2077508F101F107D22E0800F501FA
:100DA800F601D62E711CD92EDA2EDE2E7308F50721
:100DB8007408F63D0130F335F40D890BDF2E013050
:100DC800F236F10C890BE42E72087104031DED2E26
:100DD800EE2ED62EEF2E7608F201F2077508F101F5
:100DE800F107F62E08007108F3007308F500F508FE
:100DF800031DFF2E002F022F132F132F0630F40090
:100E08003030F300F30B062FF40B062F00000130EF
:100E1800F502F508031D112F122F022F132F0800BA
:100E2800FC01DB01DC01DD01DE01DF013D30840076
:100E3800873085004E308600003087000D308731BE
:100E480063278731200080310D28F200F1013A3004
:100E580072020318302F312F3A2F30307202031CE0
:100E6800362F372F3A2FF101F10A3A2F710C3C2F08
:100E780008003234003400340234003402340034C0
:100E880002340034023432340034C03421009E1756
:100E98001E088F3950389E001E11FC309E05833085
:100EA8009D051D140800F100592F2000111E5D2F0B
:100EB8005E2F592F5F2F710823009A000800FE004B
:0A0EC80012001E00FE0B642F003420
:020000040001F9
:04000E00E4C9FFDC66
:00000001FF
